{
  "contractName": "TokenManager",
  "abi": [
    {
      "inputs": [
        {
          "internalType": "address",
          "name": "adminAddress",
          "type": "address"
        },
        {
          "internalType": "uint256",
          "name": "percentage",
          "type": "uint256"
        }
      ],
      "stateMutability": "nonpayable",
      "type": "constructor"
    },
    {
      "anonymous": false,
      "inputs": [
        {
          "indexed": false,
          "internalType": "address",
          "name": "payer",
          "type": "address"
        },
        {
          "indexed": false,
          "internalType": "uint256",
          "name": "depositId",
          "type": "uint256"
        },
        {
          "indexed": false,
          "internalType": "uint256",
          "name": "amount",
          "type": "uint256"
        },
        {
          "indexed": false,
          "internalType": "uint256",
          "name": "date",
          "type": "uint256"
        }
      ],
      "name": "DepositDone",
      "type": "event"
    },
    {
      "inputs": [],
      "name": "admin",
      "outputs": [
        {
          "internalType": "address",
          "name": "",
          "type": "address"
        }
      ],
      "stateMutability": "view",
      "type": "function",
      "constant": true
    },
    {
      "inputs": [],
      "name": "percentageCut",
      "outputs": [
        {
          "internalType": "uint256",
          "name": "",
          "type": "uint256"
        }
      ],
      "stateMutability": "view",
      "type": "function",
      "constant": true
    },
    {
      "inputs": [
        {
          "internalType": "contract IERC20",
          "name": "token",
          "type": "address"
        }
      ],
      "name": "balanceERC20",
      "outputs": [
        {
          "internalType": "uint256",
          "name": "",
          "type": "uint256"
        }
      ],
      "stateMutability": "view",
      "type": "function",
      "constant": true
    },
    {
      "inputs": [
        {
          "internalType": "address",
          "name": "depositer",
          "type": "address"
        }
      ],
      "name": "depositBalance",
      "outputs": [
        {
          "internalType": "uint256",
          "name": "",
          "type": "uint256"
        }
      ],
      "stateMutability": "view",
      "type": "function",
      "constant": true
    },
    {
      "inputs": [
        {
          "internalType": "address",
          "name": "adminAddress",
          "type": "address"
        },
        {
          "internalType": "uint256",
          "name": "percentage",
          "type": "uint256"
        }
      ],
      "name": "setAdminAndPercentageCut",
      "outputs": [],
      "stateMutability": "nonpayable",
      "type": "function"
    },
    {
      "inputs": [
        {
          "internalType": "contract IERC20",
          "name": "token",
          "type": "address"
        },
        {
          "internalType": "uint256",
          "name": "depositId",
          "type": "uint256"
        },
        {
          "internalType": "uint256",
          "name": "amount",
          "type": "uint256"
        }
      ],
      "name": "deposit",
      "outputs": [],
      "stateMutability": "payable",
      "type": "function",
      "payable": true
    },
    {
      "inputs": [
        {
          "internalType": "contract IERC20",
          "name": "token",
          "type": "address"
        },
        {
          "internalType": "address",
          "name": "depositor",
          "type": "address"
        },
        {
          "internalType": "address",
          "name": "to",
          "type": "address"
        },
        {
          "internalType": "uint256",
          "name": "amount",
          "type": "uint256"
        }
      ],
      "name": "transferFromContract",
      "outputs": [],
      "stateMutability": "nonpayable",
      "type": "function"
    }
  ],
  "bytecode": "0x60806040523480156200001157600080fd5b50604051620010273803806200102783398181016040528101906200003791906200012b565b816000806101000a81548173ffffffffffffffffffffffffffffffffffffffff021916908373ffffffffffffffffffffffffffffffffffffffff16021790555080600181905550505062000172565b600080fd5b600073ffffffffffffffffffffffffffffffffffffffff82169050919050565b6000620000b8826200008b565b9050919050565b620000ca81620000ab565b8114620000d657600080fd5b50565b600081519050620000ea81620000bf565b92915050565b6000819050919050565b6200010581620000f0565b81146200011157600080fd5b50565b6000815190506200012581620000fa565b92915050565b6000806040838503121562000145576200014462000086565b5b60006200015585828601620000d9565b9250506020620001688582860162000114565b9150509250929050565b610ea580620001826000396000f3fe6080604052600436106100705760003560e01c8063956501bb1161004e578063956501bb146100f7578063d2db195014610134578063f4f422461461015d578063f851a4401461018857610070565b80630efe6a8b146100755780630f4ac71a146100915780635f910fc1146100ce575b600080fd5b61008f600480360381019061008a91906107f5565b6101b3565b005b34801561009d57600080fd5b506100b860048036038101906100b39190610848565b6103e0565b6040516100c59190610884565b60405180910390f35b3480156100da57600080fd5b506100f560048036038101906100f091906108cb565b610463565b005b34801561010357600080fd5b5061011e6004803603810190610119919061090b565b61053c565b60405161012b9190610884565b60405180910390f35b34801561014057600080fd5b5061015b60048036038101906101569190610938565b610585565b005b34801561016957600080fd5b50610172610720565b60405161017f9190610884565b60405180910390f35b34801561019457600080fd5b5061019d610726565b6040516101aa91906109ae565b60405180910390f35b600081116101f6576040517f08c379a00000000000000000000000000000000000000000000000000000000081526004016101ed90610a26565b60405180910390fd5b60006001546064836102089190610aa4565b6102129190610ad5565b9050600081836102229190610b2f565b905080600260003373ffffffffffffffffffffffffffffffffffffffff1673ffffffffffffffffffffffffffffffffffffffff16815260200190815260200160002060008282546102739190610b63565b925050819055508473ffffffffffffffffffffffffffffffffffffffff166323b872dd3360008054906101000a900473ffffffffffffffffffffffffffffffffffffffff16856040518463ffffffff1660e01b81526004016102d793929190610bb9565b6020604051808303816000875af11580156102f6573d6000803e3d6000fd5b505050506040513d601f19601f8201168201806040525081019061031a9190610c28565b508473ffffffffffffffffffffffffffffffffffffffff166323b872dd3330846040518463ffffffff1660e01b815260040161035893929190610bb9565b6020604051808303816000875af1158015610377573d6000803e3d6000fd5b505050506040513d601f19601f8201168201806040525081019061039b9190610c28565b507f3316e7ec817eb196932429fb22203f9c94196e2f5d4fe66cd2bb6968b5f85e0a338585426040516103d19493929190610c55565b60405180910390a15050505050565b60008173ffffffffffffffffffffffffffffffffffffffff166370a08231306040518263ffffffff1660e01b815260040161041b91906109ae565b602060405180830381865afa158015610438573d6000803e3d6000fd5b505050506040513d601f19601f8201168201806040525081019061045c9190610caf565b9050919050565b60008054906101000a900473ffffffffffffffffffffffffffffffffffffffff1673ffffffffffffffffffffffffffffffffffffffff163373ffffffffffffffffffffffffffffffffffffffff16146104f1576040517f08c379a00000000000000000000000000000000000000000000000000000000081526004016104e890610d28565b60405180910390fd5b816000806101000a81548173ffffffffffffffffffffffffffffffffffffffff021916908373ffffffffffffffffffffffffffffffffffffffff160217905550806001819055505050565b6000600260008373ffffffffffffffffffffffffffffffffffffffff1673ffffffffffffffffffffffffffffffffffffffff168152602001908152602001600020549050919050565b60008054906101000a900473ffffffffffffffffffffffffffffffffffffffff1673ffffffffffffffffffffffffffffffffffffffff163373ffffffffffffffffffffffffffffffffffffffff1614610613576040517f08c379a000000000000000000000000000000000000000000000000000000000815260040161060a90610d94565b60405180910390fd5b6000600260008573ffffffffffffffffffffffffffffffffffffffff1673ffffffffffffffffffffffffffffffffffffffff1681526020019081526020016000205490508082111561069a576040517f08c379a000000000000000000000000000000000000000000000000000000000815260040161069190610e26565b60405180910390fd5b8473ffffffffffffffffffffffffffffffffffffffff1663a9059cbb84846040518363ffffffff1660e01b81526004016106d5929190610e46565b6020604051808303816000875af11580156106f4573d6000803e3d6000fd5b505050506040513d601f19601f820116820180604052508101906107189190610c28565b505050505050565b60015481565b60008054906101000a900473ffffffffffffffffffffffffffffffffffffffff1681565b600080fd5b600073ffffffffffffffffffffffffffffffffffffffff82169050919050565b600061077a8261074f565b9050919050565b600061078c8261076f565b9050919050565b61079c81610781565b81146107a757600080fd5b50565b6000813590506107b981610793565b92915050565b6000819050919050565b6107d2816107bf565b81146107dd57600080fd5b50565b6000813590506107ef816107c9565b92915050565b60008060006060848603121561080e5761080d61074a565b5b600061081c868287016107aa565b935050602061082d868287016107e0565b925050604061083e868287016107e0565b9150509250925092565b60006020828403121561085e5761085d61074a565b5b600061086c848285016107aa565b91505092915050565b61087e816107bf565b82525050565b60006020820190506108996000830184610875565b92915050565b6108a88161076f565b81146108b357600080fd5b50565b6000813590506108c58161089f565b92915050565b600080604083850312156108e2576108e161074a565b5b60006108f0858286016108b6565b9250506020610901858286016107e0565b9150509250929050565b6000602082840312156109215761092061074a565b5b600061092f848285016108b6565b91505092915050565b600080600080608085870312156109525761095161074a565b5b6000610960878288016107aa565b9450506020610971878288016108b6565b9350506040610982878288016108b6565b9250506060610993878288016107e0565b91505092959194509250565b6109a88161076f565b82525050565b60006020820190506109c3600083018461099f565b92915050565b600082825260208201905092915050565b7f6465706f7369742030206f72206d6f726520746f6b656e730000000000000000600082015250565b6000610a106018836109c9565b9150610a1b826109da565b602082019050919050565b60006020820190508181036000830152610a3f81610a03565b9050919050565b7f4e487b7100000000000000000000000000000000000000000000000000000000600052601260045260246000fd5b7f4e487b7100000000000000000000000000000000000000000000000000000000600052601160045260246000fd5b6000610aaf826107bf565b9150610aba836107bf565b925082610aca57610ac9610a46565b5b828204905092915050565b6000610ae0826107bf565b9150610aeb836107bf565b9250817fffffffffffffffffffffffffffffffffffffffffffffffffffffffffffffffff0483118215151615610b2457610b23610a75565b5b828202905092915050565b6000610b3a826107bf565b9150610b45836107bf565b925082821015610b5857610b57610a75565b5b828203905092915050565b6000610b6e826107bf565b9150610b79836107bf565b9250827fffffffffffffffffffffffffffffffffffffffffffffffffffffffffffffffff03821115610bae57610bad610a75565b5b828201905092915050565b6000606082019050610bce600083018661099f565b610bdb602083018561099f565b610be86040830184610875565b949350505050565b60008115159050919050565b610c0581610bf0565b8114610c1057600080fd5b50565b600081519050610c2281610bfc565b92915050565b600060208284031215610c3e57610c3d61074a565b5b6000610c4c84828501610c13565b91505092915050565b6000608082019050610c6a600083018761099f565b610c776020830186610875565b610c846040830185610875565b610c916060830184610875565b95945050505050565b600081519050610ca9816107c9565b92915050565b600060208284031215610cc557610cc461074a565b5b6000610cd384828501610c9a565b91505092915050565b7f6f6e6c792061646d696e206368616e6765207468657365000000000000000000600082015250565b6000610d126017836109c9565b9150610d1d82610cdc565b602082019050919050565b60006020820190508181036000830152610d4181610d05565b9050919050565b7f6f6e6c792061646d696e2063616e206d6f76652066756e647300000000000000600082015250565b6000610d7e6019836109c9565b9150610d8982610d48565b602082019050919050565b60006020820190508181036000830152610dad81610d71565b9050919050565b7f776974686472617720616d6f756e74206d6f7265207468616e2062616c616e6360008201527f6500000000000000000000000000000000000000000000000000000000000000602082015250565b6000610e106021836109c9565b9150610e1b82610db4565b604082019050919050565b60006020820190508181036000830152610e3f81610e03565b9050919050565b6000604082019050610e5b600083018561099f565b610e686020830184610875565b939250505056fea2646970667358221220168769dd18f6d198731e906126f50e0582e673cae3755fc8a48ec36c4f2ba37664736f6c634300080a0033",
  "immutableReferences": {},
  "source": "pragma solidity ^0.8.0;\n\nimport '@openzeppelin/contracts/token/ERC20/IERC20.sol';\n\ncontract TokenManager {\n    address public admin;\n    uint public percentageCut;\n    mapping(address => uint) deposits;\n    \n    constructor(address adminAddress, uint percentage) {\n        admin = adminAddress;\n        percentageCut = percentage;\n    }\n\n    event DepositDone(\n        address payer,\n        uint depositId,\n        uint amount,\n        uint date\n    );\n\n    function balanceERC20(IERC20 token) external view returns (uint) {\n        return token.balanceOf(address(this));\n    }\n\n    function depositBalance(address depositer) external view returns (uint) {\n        return deposits[depositer];\n    }\n\n    function setAdminAndPercentageCut(address adminAddress, uint percentage) external {\n        require(msg.sender == admin, \"only admin change these\"); \n        admin = adminAddress;\n        percentageCut = percentage;\n    }\n\n    function deposit(IERC20 token, uint depositId, uint amount) external payable {\n        require(amount > 0, \"deposit 0 or more tokens\");\n        uint amountCut = (amount/100)*(percentageCut);\n        uint amountDeposit = amount - amountCut;\n        deposits[msg.sender] += amountDeposit;\n        token.transferFrom(msg.sender, admin, amountCut);\n        token.transferFrom(msg.sender, address(this), amountDeposit);\n        emit DepositDone(msg.sender, depositId, amount, block.timestamp);\n    }\n\n    // can be used for withdrawal as well\n    function transferFromContract(IERC20 token, address depositor, address to, uint amount) external {\n        require(msg.sender == admin, \"only admin can move funds\"); \n        uint erc20balance = deposits[depositor];\n        require(amount <= erc20balance, \"withdraw amount more than balance\");\n        token.transfer(to, amount);\n    }\n}",
  "sourcePath": "/Users/larrylee/Documents/projects/shillz.me/contracts/TokenManager.sol",
  "compiler": {
    "name": "solc",
    "version": "0.8.10+commit.fc410830.Emscripten.clang"
  },
  "schemaVersion": "3.4.3",
  "updatedAt": "2022-03-29T14:56:20.440Z",
  "networkType": "ethereum",
  "devdoc": {
    "kind": "dev",
    "methods": {},
    "version": 1
  },
  "userdoc": {
    "kind": "user",
    "methods": {},
    "version": 1
  }
}